{
  "contractName": "MultiSig2of3",
  "abi": [
    {
      "constant": true,
      "inputs": [],
      "name": "unchainedMultisigVersionMajor",
      "outputs": [
        {
          "name": "",
          "type": "uint256"
        }
      ],
      "payable": false,
      "stateMutability": "view",
      "type": "function"
    },
    {
      "constant": true,
      "inputs": [],
      "name": "spendNonce",
      "outputs": [
        {
          "name": "",
          "type": "uint256"
        }
      ],
      "payable": false,
      "stateMutability": "view",
      "type": "function"
    },
    {
      "inputs": [
        {
          "name": "owner1",
          "type": "address"
        },
        {
          "name": "owner2",
          "type": "address"
        },
        {
          "name": "owner3",
          "type": "address"
        }
      ],
      "payable": false,
      "stateMutability": "nonpayable",
      "type": "constructor"
    },
    {
      "payable": true,
      "stateMutability": "payable",
      "type": "fallback"
    },
    {
      "anonymous": false,
      "inputs": [
        {
          "indexed": false,
          "name": "newBalance",
          "type": "uint256"
        }
      ],
      "name": "Funded",
      "type": "event"
    },
    {
      "anonymous": false,
      "inputs": [
        {
          "indexed": false,
          "name": "to",
          "type": "address"
        },
        {
          "indexed": false,
          "name": "transfer",
          "type": "uint256"
        }
      ],
      "name": "Spent",
      "type": "event"
    },
    {
      "constant": true,
      "inputs": [
        {
          "name": "destination",
          "type": "address"
        },
        {
          "name": "value",
          "type": "uint256"
        }
      ],
      "name": "generateMessageToSign",
      "outputs": [
        {
          "name": "",
          "type": "bytes32"
        }
      ],
      "payable": false,
      "stateMutability": "view",
      "type": "function"
    },
    {
      "constant": false,
      "inputs": [
        {
          "name": "destination",
          "type": "address"
        },
        {
          "name": "value",
          "type": "uint256"
        },
        {
          "name": "v1",
          "type": "uint8"
        },
        {
          "name": "r1",
          "type": "bytes32"
        },
        {
          "name": "s1",
          "type": "bytes32"
        },
        {
          "name": "v2",
          "type": "uint8"
        },
        {
          "name": "r2",
          "type": "bytes32"
        },
        {
          "name": "s2",
          "type": "bytes32"
        }
      ],
      "name": "spend",
      "outputs": [],
      "payable": false,
      "stateMutability": "nonpayable",
      "type": "function"
    }
  ],
  "bytecode": "0x608060405260006001556002805534801561001957600080fd5b506040516060806115a6833981018060405281019080805190602001909291908051906020019092919080519060200190929190505050600073ffffffffffffffffffffffffffffffffffffffff168373ffffffffffffffffffffffffffffffffffffffff16141515156100f5576040517f08c379a00000000000000000000000000000000000000000000000000000000081526004018080602001828103825260018152602001807f310000000000000000000000000000000000000000000000000000000000000081525060200191505060405180910390fd5b600073ffffffffffffffffffffffffffffffffffffffff168273ffffffffffffffffffffffffffffffffffffffff161415151561019a576040517f08c379a00000000000000000000000000000000000000000000000000000000081526004018080602001828103825260018152602001807f310000000000000000000000000000000000000000000000000000000000000081525060200191505060405180910390fd5b600073ffffffffffffffffffffffffffffffffffffffff168173ffffffffffffffffffffffffffffffffffffffff161415151561023f576040517f08c379a00000000000000000000000000000000000000000000000000000000081526004018080602001828103825260018152602001807f310000000000000000000000000000000000000000000000000000000000000081525060200191505060405180910390fd5b8173ffffffffffffffffffffffffffffffffffffffff168373ffffffffffffffffffffffffffffffffffffffff16141515156102e3576040517f08c379a00000000000000000000000000000000000000000000000000000000081526004018080602001828103825260018152602001807f310000000000000000000000000000000000000000000000000000000000000081525060200191505060405180910390fd5b8073ffffffffffffffffffffffffffffffffffffffff168273ffffffffffffffffffffffffffffffffffffffff1614151515610387576040517f08c379a00000000000000000000000000000000000000000000000000000000081526004018080602001828103825260018152602001807f310000000000000000000000000000000000000000000000000000000000000081525060200191505060405180910390fd5b8073ffffffffffffffffffffffffffffffffffffffff168373ffffffffffffffffffffffffffffffffffffffff161415151561042b576040517f08c379a00000000000000000000000000000000000000000000000000000000081526004018080602001828103825260018152602001807f310000000000000000000000000000000000000000000000000000000000000081525060200191505060405180910390fd5b60016000808573ffffffffffffffffffffffffffffffffffffffff1673ffffffffffffffffffffffffffffffffffffffff16815260200190815260200160002060006101000a81548160ff02191690831515021790555060016000808473ffffffffffffffffffffffffffffffffffffffff1673ffffffffffffffffffffffffffffffffffffffff16815260200190815260200160002060006101000a81548160ff02191690831515021790555060016000808373ffffffffffffffffffffffffffffffffffffffff1673ffffffffffffffffffffffffffffffffffffffff16815260200190815260200160002060006101000a81548160ff021916908315150217905550505050611064806105426000396000f300608060405260043610610062576000357c0100000000000000000000000000000000000000000000000000000000900463ffffffff16806323eb861c146100b2578063843b1a09146100dd578063bb6d203c14610108578063d0590bad146101a7575b7fc4c14883ae9fd8e26d5d59e3485ed29fd126d781d7e498a4ca5c54c8268e49363073ffffffffffffffffffffffffffffffffffffffff16316040518082815260200191505060405180910390a1005b3480156100be57600080fd5b506100c7610210565b6040518082815260200191505060405180910390f35b3480156100e957600080fd5b506100f2610216565b6040518082815260200191505060405180910390f35b34801561011457600080fd5b506101a5600480360381019080803573ffffffffffffffffffffffffffffffffffffffff16906020019092919080359060200190929190803560ff16906020019092919080356000191690602001909291908035600019169060200190929190803560ff1690602001909291908035600019169060200190929190803560001916906020019092919050505061021c565b005b3480156101b357600080fd5b506101f2600480360381019080803573ffffffffffffffffffffffffffffffffffffffff16906020019092919080359060200190929190505050610406565b60405180826000191660001916815260200191505060405180910390f35b60025481565b60015481565b863073ffffffffffffffffffffffffffffffffffffffff1631101515156102ab576040517f08c379a00000000000000000000000000000000000000000000000000000000081526004018080602001828103825260018152602001807f330000000000000000000000000000000000000000000000000000000000000081525060200191505060405180910390fd5b6102bb8888888888888888610617565b151561032f576040517f08c379a00000000000000000000000000000000000000000000000000000000081526004018080602001828103825260018152602001807f340000000000000000000000000000000000000000000000000000000000000081525060200191505060405180910390fd5b610344600180546107ec90919063ffffffff16565b6001819055508773ffffffffffffffffffffffffffffffffffffffff166108fc889081150290604051600060405180830381858888f19350505050158015610390573d6000803e3d6000fd5b507fd3eec71143c45f28685b24760ea218d476917aa0ac0392a55e5304cef40bd2b68888604051808373ffffffffffffffffffffffffffffffffffffffff1673ffffffffffffffffffffffffffffffffffffffff1681526020018281526020019250505060405180910390a15050505050505050565b6000803073ffffffffffffffffffffffffffffffffffffffff168473ffffffffffffffffffffffffffffffffffffffff16141515156104ad576040517f08c379a00000000000000000000000000000000000000000000000000000000081526004018080602001828103825260018152602001807f320000000000000000000000000000000000000000000000000000000000000081525060200191505060405180910390fd5b600073ffffffffffffffffffffffffffffffffffffffff168473ffffffffffffffffffffffffffffffffffffffff16141515156104e957600080fd5b600083141515156104f957600080fd5b600154308486604051602001808581526020018473ffffffffffffffffffffffffffffffffffffffff1673ffffffffffffffffffffffffffffffffffffffff166c010000000000000000000000000281526014018381526020018273ffffffffffffffffffffffffffffffffffffffff1673ffffffffffffffffffffffffffffffffffffffff166c010000000000000000000000000281526014019450505050506040516020818303038152906040526040518082805190602001908083835b6020831015156105de57805182526020820191506020810190506020830392506105b9565b6001836020036101000a038019825116818451168082178552505050505050905001915050604051809103902090508091505092915050565b6000806000806106278c8c61080d565b9250600183610643601b8d60ff1661099190919063ffffffff16565b8b8b604051600081526020016040526040518085600019166000191681526020018460ff1660ff1681526020018360001916600019168152602001826000191660001916815260200194505050505060206040516020810390808403906000865af11580156106b6573d6000803e3d6000fd5b5050506020604051035191506001836106dc601b8a60ff1661099190919063ffffffff16565b8888604051600081526020016040526040518085600019166000191681526020018460ff1660ff1681526020018360001916600019168152602001826000191660001916815260200194505050505060206040516020810390808403906000865af115801561074f573d6000803e3d6000fd5b50505060206040510351905061076582826109b8565b15156107d9576040517f08c379a00000000000000000000000000000000000000000000000000000000081526004018080602001828103825260018152602001807f350000000000000000000000000000000000000000000000000000000000000081525060200191505060405180910390fd5b6001935050505098975050505050505050565b600080828401905083811015151561080357600080fd5b8091505092915050565b60008060608061081d8686610406565b925061082883610be8565b91506040805190810160405280601c81526020017f19457468657265756d205369676e6564204d6573736167653a0a363400000000815250905080826040516020018083805190602001908083835b60208310151561089c5780518252602082019150602081019050602083039250610877565b6001836020036101000a03801982511681845116808217855250505050505090500182805190602001908083835b6020831015156108ef57805182526020820191506020810190506020830392506108ca565b6001836020036101000a038019825116818451168082178552505050505050905001925050506040516020818303038152906040526040518082805190602001908083835b6020831015156109595780518252602082019150602081019050602083039250610934565b6001836020036101000a0380198251168184511680821785525050505050509050019150506040518091039020935050505092915050565b60008082840190508360ff168160ff16101515156109ae57600080fd5b8091505092915050565b60008173ffffffffffffffffffffffffffffffffffffffff168373ffffffffffffffffffffffffffffffffffffffff1614151515610a5e576040517f08c379a00000000000000000000000000000000000000000000000000000000081526004018080602001828103825260018152602001807f350000000000000000000000000000000000000000000000000000000000000081525060200191505060405180910390fd5b6000808473ffffffffffffffffffffffffffffffffffffffff1673ffffffffffffffffffffffffffffffffffffffff16815260200190815260200160002060009054906101000a900460ff161515610b1e576040517f08c379a00000000000000000000000000000000000000000000000000000000081526004018080602001828103825260018152602001807f350000000000000000000000000000000000000000000000000000000000000081525060200191505060405180910390fd5b6000808373ffffffffffffffffffffffffffffffffffffffff1673ffffffffffffffffffffffffffffffffffffffff16815260200190815260200160002060009054906101000a900460ff161515610bde576040517f08c379a00000000000000000000000000000000000000000000000000000000081526004018080602001828103825260018152602001807f350000000000000000000000000000000000000000000000000000000000000081525060200191505060405180910390fd5b6001905092915050565b606080600080600080604080519080825280601f01601f191660200182016040528015610c245781602001602082028038833980820191505090505b509450600093505b6020841015610e30578684602081101515610c4357fe5b1a7f0100000000000000000000000000000000000000000000000000000000000000029250610ca26010847f0100000000000000000000000000000000000000000000000000000000000000900460ff16610e3d90919063ffffffff16565b7f0100000000000000000000000000000000000000000000000000000000000000029150610d38610d036010847f0100000000000000000000000000000000000000000000000000000000000000900460ff16610e7090919063ffffffff16565b847f0100000000000000000000000000000000000000000000000000000000000000900460ff16610ebd90919063ffffffff16565b7f0100000000000000000000000000000000000000000000000000000000000000029050610d6582610ee4565b85610d7a600287610ffa90919063ffffffff16565b815181101515610d8657fe5b9060200101907effffffffffffffffffffffffffffffffffffffffffffffffffffffffffffff1916908160001a905350610dbf81610ee4565b85610de76001610dd9600289610ffa90919063ffffffff16565b6107ec90919063ffffffff16565b815181101515610df357fe5b9060200101907effffffffffffffffffffffffffffffffffffffffffffffffffffffffffffff1916908160001a9053508380600101945050610c2c565b8495505050505050919050565b60008060008360ff16111515610e5257600080fd5b8260ff168460ff16811515610e6357fe5b0490508091505092915050565b60008060008460ff161415610e885760009150610eb6565b82840290508260ff168460ff168260ff16811515610ea257fe5b0460ff16141515610eb257600080fd5b8091505b5092915050565b6000808360ff168360ff1611151515610ed557600080fd5b82840390508091505092915050565b6000600a7f010000000000000000000000000000000000000000000000000000000000000002827effffffffffffffffffffffffffffffffffffffffffffffffffffffffffffff19161015610f9657610f6d6030837f0100000000000000000000000000000000000000000000000000000000000000900460ff1661099190919063ffffffff16565b7f0100000000000000000000000000000000000000000000000000000000000000029050610ff5565b610fd06057837f0100000000000000000000000000000000000000000000000000000000000000900460ff1661099190919063ffffffff16565b7f01000000000000000000000000000000000000000000000000000000000000000290505b919050565b600080600084141561100f5760009150611031565b828402905082848281151561102057fe5b0414151561102d57600080fd5b8091505b50929150505600a165627a7a723058205641bbd10225225446b3cd08fe85d12e9f32b45c6eaa7137856562c3fd9adfd10029",
  "source": "pragma solidity 0.4.24;\n\nimport \"./SafeMath.sol\";\nimport \"./SafeMath8.sol\";\n\n/**\n * @title Multi-sig Wallet\n * @dev A 2/3 multisig contract compatible with Trezor or Ledger-signed messages.\n * \n * To authorize a spend, two signtures must be provided by 2 of the 3 owners.\n * To generate the message to be signed, provide the destination address and\n * spend amount (in wei) to the generateMessageToSignmethod.\n * The signatures must be provided as the (v, r, s) hex-encoded coordinates.\n * The S coordinate must be 0x00 or 0x01 corresponding to 0x1b and 0x1c\n * (27 and 28), respectively.\n * See the test file for example inputs.\n * \n * If you use other software than the provided dApp or scripts to sign the\n * message, verify that the message shown by the device matches the\n * generated message in hex.\n * \n * WARNING: The generated message is only valid until the next spend\n *          is executed. After that, a new message will need to be calculated.\n * \n * ADDITIONAL WARNING: This contract is **NOT** ERC20 compatible.\n * Tokens sent to this contract will be lost forever.\n * \n * ERROR CODES:\n * \n * 1: Invalid Owner Address. You must provide three distinct addresses.\n *    None of the provided addresses may be 0x00.\n * 2: Invalid Destination. You may not send ETH to this contract's address.\n * 3: Insufficient Balance. You have tried to send more ETH that this\n *    contract currently owns.\n * 4: Invalid Signature. The provided signature does not correspond to\n *    the provided destination, amount, nonce and current contract.\n *    Did you swap the R and S fields?\n * 5: Invalid Signers. The provided signatures are correctly signed, but are\n *    not signed by the correct addresses. You must provide signatures from\n *    two of the owner addresses.\n * \n * Developed by Unchained Capital, Inc.\n */\n\ncontract MultiSig2of3 {\n\n  using SafeMath for uint256;\n  using SafeMath8 for uint8;\n  \n  /**\n   * @dev The 3 addresses which control the funds in this contract.  The\n   * owners of 2 of these addresses will need to both sign a message\n   * allowing the funds in this contract to be spent.\n   */\n  mapping(address => bool) private owners;\n\n  /**\n   * @dev The contract nonce is not accessible to the contract so we\n   * implement a nonce-like variable for replay protection.\n   */\n  uint256 public spendNonce = 0;\n\n  /**\n   * Contract Versioning\n   */\n  uint256 public unchainedMultisigVersionMajor = 2;\n\n  /**\n   * An event sent when funds are received.\n   */\n  event Funded(uint newBalance);\n\n  /**\n   * An event sent when a spend is triggered to the given address.\n   */\n  event Spent(address to, uint transfer);\n\n  /**\n   * Instantiate a new Multisig 2 of 3 contract owned by the\n   * three given addresses\n   */\n  constructor(address owner1, address owner2, address owner3) public {\n    require(owner1 != address(0), \"1\");\n    require(owner2 != address(0), \"1\");\n    require(owner3 != address(0), \"1\");\n\n    require(owner1 != owner2, \"1\");\n    require(owner2 != owner3, \"1\");\n    require(owner1 != owner3, \"1\");\n\n    owners[owner1] = true;\n    owners[owner2] = true;\n    owners[owner3] = true;\n  }\n\n  /**\n   * @dev The fallback function for this contract.\n   */\n  function() public payable {\n    emit Funded(address(this).balance);\n  }\n\n  /**\n   * @dev Generates the message to sign given the output destination address and amount.\n   * includes this contract's address and a nonce for replay protection.\n   * One option to independently verify:\n   *     https://leventozturk.com/engineering/sha3/ and select keccak\n   */\n  function generateMessageToSign(address destination,\n                                 uint256 value)\n    public view returns (bytes32)\n  {\n    require(destination != address(this), \"2\");\n    require(destination != address(0));\n    require(value != 0);\n    \n    bytes32 message = keccak256(abi.encodePacked(spendNonce,\n                                                 this,\n                                                 value,\n                                                 destination));\n    return message;\n  }\n\n  /**\n   * @dev Send the given amount of ETH to the given destination using\n   * the two triplets (v1, r1, s1) and (v2, r2, s2) as signatures.\n   * v1 and v2 should be 0x00 or 0x01 corresponding to 0x1b and 0x1c respectively.\n   */\n  function spend(address destination,\n                 uint256 value,\n                 uint8 v1,\n                 bytes32 r1,\n                 bytes32 s1,\n                 uint8 v2,\n                 bytes32 r2,\n                 bytes32 s2)\n    public\n  {\n    /**\n     * This require is handled by generateMessageToSign()\n     * require(destination != address(this));\n     */\n    require(address(this).balance >= value, \"3\");\n    require(_validSignature(destination,\n                            value,\n                            v1, r1, s1,\n                            v2, r2, s2),\n            \"4\");\n    spendNonce = spendNonce.add(1);\n    destination.transfer(value);\n    emit Spent(destination, value);\n  }\n\n  /**\n   * Confirm that the two signature triplets (v1, r1, s1) and (v2, r2, s2)\n   * both authorize a spend of this contract's funds to the given\n   * destination address.\n   */\n  function _validSignature(address destination,\n                           uint256 value,\n                           uint8 v1, bytes32 r1, bytes32 s1,\n                           uint8 v2, bytes32 r2, bytes32 s2)\n    private view returns (bool)\n  {\n    bytes32 message = _messageToRecover(destination, value);\n    address addr1 = ecrecover(message, v1.add(27), r1, s1);\n    address addr2 = ecrecover(message, v2.add(27), r2, s2);\n    require(_distinctOwners(addr1, addr2), \"5\");\n\n    return true;\n  }\n\n  /**\n   * @dev Generate the the unsigned message (in bytes32) that each owner's\n   * wallet would have signed for the given destination and amount.\n   *\n   * The generated message from generateMessageToSign is converted to\n   * ascii when signed by a trezor.\n   *\n   * The required signing prefix, the length of this\n   * unsigned message, and the unsigned ascii message itself are\n   * then concatenated and hashed with keccak256.\n   */\n  function _messageToRecover(address destination,\n                             uint256 value)\n    private view returns (bytes32)\n  {\n    bytes32 hashedUnsignedMessage = generateMessageToSign(destination, value);\n    bytes memory unsignedMessageBytes = _hashToAscii(hashedUnsignedMessage);\n    bytes memory prefix = \"\\x19Ethereum Signed Message:\\n64\";\n    return keccak256(abi.encodePacked(prefix,unsignedMessageBytes));\n  }\n\n  /**\n   * @dev Confirm the pair of addresses as two distinct owners of this contract.\n   */\n  function _distinctOwners(address addr1,\n                           address addr2)\n    private view returns (bool)\n  {\n    require(addr1 != addr2, \"5\");\n    require(owners[addr1], \"5\");\n    require(owners[addr2], \"5\");\n    return true;\n  }\n\n  /**\n   * @dev Construct the byte representation of the ascii-encoded\n   * hashed message written in hex.\n   */\n  function _hashToAscii(bytes32 hash) private pure returns (bytes) {\n    bytes memory s = new bytes(64);\n    for (uint i = 0; i < 32; i++) {\n      byte b = hash[i];\n      byte hi = byte(uint8(b).div(16));\n      byte lo = byte(uint8(b).sub(uint8(hi).mul(16)));\n      \n      s[i.mul(2)] = _char(hi);\n      s[i.mul(2).add(1)] = _char(lo);\n    }\n    return s;\n  }\n\n  /**\n   * @dev Convert from byte to ASCII of 0-f\n   * http://www.unicode.org/charts/PDF/U0000.pdf\n   */\n  function _char(byte b) private pure returns (byte c) {\n    if (b < 10) {\n      return byte(uint8(b).add(0x30));\n    } else {\n      return byte(uint8(b).add(0x57));\n    }\n  }\n}\n",
  "sourcePath": "/home/pastel/Projects/ethereum-multisig/contracts/MultiSig2of3.sol",
  "compiler": {
    "name": "solc",
    "version": "0.4.24+commit.e67f0147.Emscripten.clang"
  },
  "schemaVersion": "2.0.1",
  "updatedAt": "2018-09-11T07:26:25.140Z"
}